:020000040800F2
:10000000000002206D870008BD870008BD8700083A
:10001000BD870008BD870008BD87000800000000FC
:10002000000000000000000000000000BD87000884
:10003000BD87000800000000BD870008F9700008B7
:10004000BD870008BD870008BD870008BD87000880
:1000500000000000BD870008BD870008BD870008BC
:10006000BD870008BD870008BD870008BD87000860
:10007000BD870008BD870008BD870008BD87000850
:10008000BD870008BD870008BD870008BD87000840
:10009000BD870008BD870008BD870008BD87000830
:1000A000BD870008BD870008BD870008BD87000820
:1000B000BD810008BD870008BD870008BD87000816
:1000C000BD870008BD870008BD870008BD87000800
:1000D000BD870008BD870008BD8700081D720008A5
:1000E000BD870008BD870008BD870008BD870008E0
:1000F000BD870008BD870008BD870008BD870008D0
:10010000BD870008BD8700085D690008BD8700083D
:1001100071720008BD870008796F0008BD8700086C
:10012000BD870008BD870008BD870008BD8700089F
:10013000BD870008BD870008BD870008BD8700088F
:10014000BD870008BD870008BD870008BD8700087F
:10015000BD870008BD870008BD870008BD8700086F
:10016000BD870008BD870008BD870008BD8700085F
:10017000BD870008BD870008BD870008BD8700084F
:10018000BD870008BD8700080000000000000000D7
:10019000000000000000000000000000000000005F
:0801A000BD870008BD870008BF
:1001C00010B5054C237833B9044B13B10448AFF391
:1001D00000800123237010BDE00900200000000012
:1001E000ACDD000808B5034B1BB103490348AFF36E
:1001F000008008BD00000000E4090020ACDD00081C
:1002000081F0004102E000BF83F0004330B54FEAC7
:1002100041044FEA430594EA050F08BF90EA020F34
:100220001FBF54EA000C55EA020C7FEA645C7FEAC7
:10023000655C00F0E2804FEA5454D4EB5555B8BFEA
:100240006D420CDD2C4480EA020281EA030382EA5B
:10025000000083EA010180EA020281EA0303362DED
:1002600088BF30BD11F0004F4FEA01314FF4801CC0
:100270004CEA113102D0404261EB410113F0004FD2
:100280004FEA03334CEA133302D0524263EB430389
:1002900094EA050F00F0A780A4F10104D5F1200E27
:1002A0000DDB02FA0EFC22FA05F2801841F1000182
:1002B00003FA0EF2801843FA05F359410EE0A5F156
:1002C00020050EF1200E012A03FA0EFC28BF4CF087
:1002D000020C43FA05F3C01851EBE37101F000453D
:1002E00007D54FF0000EDCF1000C7EEB00006EEB4A
:1002F0000101B1F5801F1BD3B1F5001F0CD34908D4
:100300005FEA30004FEA3C0C04F101044FEA44522A
:1003100012F5800F80F09A80BCF1004F08BF5FEAB1
:10032000500C50F1000041EB045141EA050130BD91
:100330005FEA4C0C404141EB010111F4801FA4F134
:100340000104E9D191F0000F04BF01460020B1FA89
:1003500081F308BF2033A3F10B03B3F120020CDAC1
:100360000C3208DD02F1140CC2F10C0201FA0CF09F
:1003700021FA02F10CE002F11402D8BFC2F1200C04
:1003800001FA02F120FA0CFCDCBF41EA0C019040BA
:10039000E41AA2BF01EB0451294330BD6FEA040403
:1003A0001F3C1CDA0C340EDC04F11404C4F12002EE
:1003B00020FA04F001FA02F340EA030021FA04F300
:1003C00045EA030130BDC4F10C04C4F1200220FA57
:1003D00002F001FA04F340EA0300294630BD21FA95
:1003E00004F0294630BD94F0000F83F4801306BF5B
:1003F00081F480110134013D4EE77FEA645C18BF4F
:100400007FEA655C29D094EA050F08BF90EA020FE5
:1004100005D054EA000C04BF1946104630BD91EADD
:10042000030F1EBF0021002030BD5FEA545C05D1E0
:100430004000494128BF41F0004130BD14F580041F
:100440003CBF01F5801130BD01F0004545F0FE4193
:1004500041F470014FF0000030BD7FEA645C1ABFC8
:10046000194610467FEA655C1CBF0B46024650EAFF
:10047000013406BF52EA033591EA030F41F400212B
:1004800030BD00BF90F0000F04BF0021704730B5B1
:100490004FF4806404F132044FF000054FF0000186
:1004A00050E700BF90F0000F04BF0021704730B547
:1004B0004FF4806404F1320410F0004548BF40421C
:1004C0004FF000013EE700BF42004FEAE2014FEA71
:1004D00031014FEA02701FBF12F07F4393F07F4F4C
:1004E00081F06051704732F07F4208BF704793F04F
:1004F0007F4F04BF41F40021704730B54FF4607462
:1005000001F0004521F000411CE700BF50EA010264
:1005100008BF704730B54FF000050AE050EA01020D
:1005200008BF704730B511F0004502D5404261EB7D
:1005300041014FF4806404F132045FEA915C3FF4BE
:10054000D8AE4FF003025FEADC0C18BF03325FEA5B
:10055000DC0C18BF033202EBDC02C2F1200300FA0C
:1005600003FC20FA02F001FA03FE40EA0E0021FA31
:1005700002F11444BDE600BF70B54FF0FF0C4CF41F
:10058000E06C1CEA11541DBF1CEA135594EA0C0FD1
:1005900095EA0C0F00F0DEF82C4481EA030621EA0C
:1005A0004C5123EA4C5350EA013518BF52EA033547
:1005B00041F4801143F4801338D0A0FB02CE4FF0F9
:1005C0000005E1FB02E506F00042E0FB03E54FF029
:1005D0000006E1FB03569CF0000F18BF4EF0010E21
:1005E000A4F1FF04B6F5007F64F5407404D25FEA1D
:1005F0004E0E6D4146EB060642EAC62141EA5551D0
:100600004FEAC52040EA5E504FEACE2EB4F1FD0C11
:1006100088BFBCF5E06F1ED8BEF1004F08BF5FEA8F
:10062000500E50F1000041EB045170BD06F0004641
:1006300046EA010140EA020081EA0301B4EB5C04EE
:10064000C2BFD4EB0C0541EA045170BD41F48011E6
:100650004FF0000E013C00F3AB8014F1360FDEBF0B
:10066000002001F0004170BDC4F10004203C35DAE7
:100670000C341BDC04F11404C4F1200500FA05F36A
:1006800020FA04F001FA05F240EA020001F000420B
:1006900021F0004110EBD37021FA04F642EB060181
:1006A0005EEA430E08BF20EAD37070BDC4F10C04AB
:1006B000C4F1200500FA04F320FA05F001FA04F26F
:1006C00040EA020001F0004110EBD37041F100015B
:1006D0005EEA430E08BF20EAD37070BDC4F1200566
:1006E00000FA05F24EEA020E20FA04F301FA05F2CE
:1006F00043EA020321FA04F001F0004121FA04F276
:1007000020EA020000EBD3705EEA430E08BF20EA45
:10071000D37070BD94F0000F0FD101F0004640007F
:1007200041EB010111F4801F08BF013CF7D041EA01
:10073000060195F0000F18BF704703F00046520005
:1007400043EB030313F4801F08BF013DF7D043EAD6
:100750000603704794EA0C0F0CEA135518BF95EA8C
:100760000C0F0CD050EA410618BF52EA4306D1D113
:1007700081EA030101F000414FF0000070BD50EA32
:10078000410606BF1046194652EA430619D094EABC
:100790000C0F02D150EA013613D195EA0C0F05D1A6
:1007A00052EA03361CBF104619460AD181EA0301FA
:1007B00001F0004141F0FE4141F470014FF00000B2
:1007C00070BD41F0FE4141F4780170BD70B54FF04D
:1007D000FF0C4CF4E06C1CEA11541DBF1CEA1355CD
:1007E00094EA0C0F95EA0C0F00F0A7F8A4EB0504AF
:1007F00081EA030E52EA03354FEA013100F08880A6
:100800004FEA03334FF0805545EA131343EA12636E
:100810004FEA022245EA111545EA10654FEA002623
:100820000EF000419D4208BF964244F1FD0404F5DC
:10083000407402D25B084FEA3202B61A65EB030538
:100840005B084FEA32024FF480104FF4002CB6EBF5
:10085000020E75EB030E22BFB61A754640EA0C0075
:100860005B084FEA3202B6EB020E75EB030E22BFB5
:10087000B61A754640EA5C005B084FEA3202B6EBF6
:10088000020E75EB030E22BFB61A754640EA9C00B5
:100890005B084FEA3202B6EB020E75EB030E22BF85
:1008A000B61A754640EADC0055EA060E18D04FEA43
:1008B000051545EA16754FEA06164FEAC30343EAE3
:1008C00052734FEAC2025FEA1C1CC0D111F4801FB0
:1008D0000BD141EA00014FF000004FF0004CB6E7A9
:1008E00011F4801F04BF01430020B4F1FD0C88BF48
:1008F000BCF5E06F3FF6AFAEB5EB030C04BFB6EB53
:10090000020C5FEA500C50F1000041EB045170BD45
:100910000EF0004E4EEA113114EB5C04C2BFD4EB72
:100920000C0541EA045170BD41F480114FF0000EF6
:10093000013C90E645EA060E8DE60CEA135594EA72
:100940000C0F08BF95EA0C0F3FF43BAF94EA0C0F75
:100950000AD150EA01347FF434AF95EA0C0F7FF4EA
:1009600025AF104619462CE795EA0C0F06D152EA3E
:1009700003353FF4FDAE1046194622E750EA410622
:1009800018BF52EA43067FF4C5AE50EA41047FF433
:100990000DAF52EA43057FF4EBAE12E74FF0FF3C98
:1009A00006E000BF4FF0010C02E000BF4FF0010C69
:1009B0004DF804CD4FEA410C7FEA6C5C4FEA430CE2
:1009C00018BF7FEA6C5C1BD001B050EA410C0CBF31
:1009D00052EA430C91EA030F02BF90EA020F002093
:1009E000704710F1000F91EA030F58BF994208BFFA
:1009F00090422CBFD8176FEAE37040F001007047B7
:100A00004FEA410C7FEA6C5C02D150EA013C07D10D
:100A10004FEA430C7FEA6C5CD6D152EA033CD3D058
:100A20005DF8040B704700BF8446104662468C4652
:100A30001946634600E000BF01B5FFF7B7FF002885
:100A400048BF10F1000F01BD4DF808EDFFF7F4FFAE
:100A50000CBF012000205DF808FB00BF4DF808ED39
:100A6000FFF7EAFF34BF012000205DF808FB00BF5C
:100A70004DF808EDFFF7E0FF94BF012000205DF87E
:100A800008FB00BF4DF808EDFFF7CEFF94BF012033
:100A900000205DF808FB00BF4DF808EDFFF7C4FF2C
:100AA00034BF012000205DF808FB00BF4FEA410C75
:100AB0007FEA6C5C02D150EA013C0AD14FEA430C58
:100AC0007FEA6C5C02D152EA033C02D14FF0000095
:100AD00070474FF0010070474FEA410212F50012D3
:100AE00015D211D56FF47873B3EB625212D94FEA75
:100AF000C12343F0004343EA505311F0004F23FA5F
:100B000002F018BF404270474FF00000704750EAB3
:100B1000013005D111F0004008BF6FF00040704770
:100B20004FF00000704700BF4FEA4102B2F1E043CE
:100B300024BFB3F5001CDCF1FE5C0DD901F0004CC4
:100B40004FEAC0024CEA5070B2F1004F40EB830014
:100B500008BF20F00100704711F0804F21D113F140
:100B60003872BCBF01F00040704741F480114FEA79
:100B70005252C2F11802C2F1200C10FA0CF320FA02
:100B800002F018BF40F001004FEAC1234FEAD3231F
:100B900003FA0CFC40EA0C0023FA02F34FEA430389
:100BA000CCE77FEA625307D150EA01331EBF4FF012
:100BB000FE4040F44000704701F0004040F0FE402D
:100BC00040F40000704700BF53B94AB9002908BF7C
:100BD00000281CBF4FF0FF314FF0FF3000F072B91A
:100BE000ADF1080C6DE904CE00F006F8DDF804E084
:100BF000DDE9022304B070472DE9F047089E044662
:100C00008846002B4BD18A42154667D9B2FA82F248
:100C10004AB1C2F1200701FA02F320FA07F7954022
:100C200047EA030894404FEA154E230CB8FBFEF741
:100C30001FFA85FC0EFB178843EA084307FB0CF1FB
:100C4000994209D9EB1807F1FF3080F01B819942D6
:100C500040F21881023F2B445B1AA4B2B3FBFEF0B2
:100C60000EFB103344EA034400FB0CFCA44509D9F5
:100C70002C1900F1FF3380F00781A44540F2048174
:100C800002382C4440EA0740A4EB0C0400271EB1B4
:100C9000D4400023C6E900433946BDE8F0878B42C3
:100CA00009D9002E00F0EB800027C6E90001384684
:100CB0003946BDE8F087B3FA83F7002F47D18B425E
:100CC00002D3824200F2FA80841A61EB030301200E
:100CD0009846002EE0D0C6E90048DDE702B9FFDE05
:100CE000B2FA82F2002A40F08F80491B4FEA154E7B
:100CF0001FFA85F80127B1FBFEFC230C0EFB1C112B
:100D000043EA014308FB0CF1994207D9EB180CF1B7
:100D1000FF3002D2994200F2CD808446591AA3B224
:100D2000B1FBFEF00EFB101443EA044408FB00F88C
:100D3000A04507D92C1900F1FF3302D2A04500F2DB
:100D4000B6801846A4EB080440EA0C409FE7C7F1C0
:100D5000200CBB4022FA0CFE4EEA030E01FA07F407
:100D600020FA0CF521FA0CF34FEA1E482543B3FB99
:100D7000F8F92C0C08FB19331FFA8EFA44EA0343E6
:100D800009FB0AF49C4202FA07F200FA07F10BD9B8
:100D90001EEB030309F1FF3080F087809C4240F294
:100DA0008480A9F1020973441B1BADB2B3FBF8F0B8
:100DB00008FB103345EA034400FB0AFAA24508D9B0
:100DC0001EEB040400F1FF336BD2A24569D902384F
:100DD000744440EA0940A0FB0289A4EB0A044C4594
:100DE000C2464B4654D351D0002E69D0B1EB0A0510
:100DF00064EB030404FA0CFCFD40FC404CEA0505DE
:100E0000C6E90054002747E7C2F1200320FA03F7A0
:100E1000954001FA02F021FA03F34FEA154E3843E8
:100E2000010CB3FBFEF71FFA85F80EFB173341EAFE
:100E3000034107FB08F38B4204FA02F407D969184F
:100E400007F1FF3C2FD28B422DD9023F2944CB1A08
:100E500081B2B3FBFEF00EFB103341EA034100FB0D
:100E600008F38B4207D9691800F1FF3C17D28B4277
:100E700015D902382944C91A40EA07473BE73746E3
:100E8000304609E70746E7E61846FBE64145ABD2A0
:100E9000B8EB020A69EB0E0201381346A4E760467C
:100EA000E9E7184695E76746D1E781467CE70238CF
:100EB0002C4447E7ACF1020C2B442FE7384608E7F7
:100EC0003746E9E6704700BF000000000000000060
:100ED0000000000000000000000000000000000012
:100EE000A2EB0300704700BF02780B78012A28BFED
:100EF0009A42F5D16DE9044540EA0104CDE9026763
:100F00006FF0000C4FEA447212B380EA010414F04F
:100F1000070F6AD100F0070420F0070004F0030572
:100F200021F007014FEAC505F0E8042314F0040F8F
:100F3000F1E804670CFA05F462EA040266EA0406C2
:100F40000AD063EA0403624667EA0407664603E0E0
:100F5000F0E80423F1E8046782FA4CF582EA06041B
:100F6000A4FA8CF46CBB83FA4CF583EA0705A5FA66
:100F70008CF595B950E9022351E9026782FA4CF5E4
:100F800082EA0604A4FA8CF483FA4CF583EA070596
:100F9000A5FA8CF52543DBD09CB92DBAB5FA85F4BA
:100FA00024F0070427FA04F1DDE9026723FA04F3C9
:100FB00003F0FF0001F0FF01FDE80445A0EB010094
:100FC000704724BAB4FA84F424F0070426FA04F132
:100FD000DDE9026722FA04F202F0FF0001F0FF01EE
:100FE000FDE80445A0EB0100704714F0030F3CD16D
:100FF00010F0030428D150F8082B51F8083B82FA6E
:101000004CF582EA0305A5FA8CF55DB950F8042C7D
:1010100051F8043C82FA4CF582EA0305A5FA8CF5F6
:10102000002DE8D02DBAB5FA85F424F0070423FA90
:1010300004F122FA04F202F0FF0001F0FF01FDE8E2
:101040000445A0EB010070474FEAC40420F0030000
:1010500050F8082B21F0030151F8083B0CFA04F476
:1010600062EA040263EA0403C9E710F003041AD039
:10107000A1EB040120F00300E40750F8042B06D094
:101080000FD28B785FFAA2F4E41A06D12BB1CB7899
:101090005FFAB2F4E41A00D11BB920465DF8104B98
:1010A000704701F1040150F8042BCC0721F0030133
:1010B00051F8043B48D824D222F07F4482FA4CF500
:1010C00094EA1325A5FA8CF50AD165B951F8043BC9
:1010D00084EA0204B4EB036F0ED150F8042BEBE763
:1010E0004FEA132355E035F07F454DD10878FDE8F0
:1010F0000445C0F1000070474FEA126203F0FF039D
:1011000047E002EA1C4482FA4CF594EA1345A5FA3A
:101110008CF50AD165B951F8043B84EA0204B4EBBA
:10112000034F0CD150F8042BEBE74FEA134330E0A8
:1011300015EA1C4528D10B884FEA124229E04FEAF4
:10114000124203EA1C4324E002F0FF0482FA4CF549
:1011500094EA1365A5FA8CF50AD165B951F8043BF8
:1011600084EA0204B4EB032F09D150F8042BEBE717
:101170004FEA13630DE015F0FF0F05D10B684FEA3E
:10118000122223F07F4304E04FF00000FDE8044505
:10119000704712BA1BBA82FA4CF482EA0304A4FA2A
:1011A0008CF5B5FA85F402FA04F203FA04F34FEA77
:1011B0001260FDE80445A0EB1360704700000000DA
:1011C00001F0FF01102A2BDB10F0070F08D010F8F8
:1011D000013B013A8B422DD010F0070F42B3F6D1FC
:1011E000F0B441EA012141EA014122F007047FF015
:1011F00000070023F0E80256083C85EA010586EA6C
:10120000010685FA47F5A3FA87F586FA47F6A5FAA7
:1012100087F68EB9EED1F0BC01F0FF0102F00702B3
:1012200032B110F8013B013A83EA010313B1F8D15E
:101230000020704701387047002D06BF354603383F
:10124000073815F0010F07D1013015F4807F02BF78
:10125000013015F4C03F0130F0BC0138704700BFC9
:10126000844641EA000313F003036DD1403A41D3B1
:1012700051F8043B40F8043B51F8043B40F8043B70
:1012800051F8043B40F8043B51F8043B40F8043B60
:1012900051F8043B40F8043B51F8043B40F8043B50
:1012A00051F8043B40F8043B51F8043B40F8043B40
:1012B00051F8043B40F8043B51F8043B40F8043B30
:1012C00051F8043B40F8043B51F8043B40F8043B20
:1012D00051F8043B40F8043B51F8043B40F8043B10
:1012E00051F8043B40F8043B51F8043B40F8043B00
:1012F000403ABDD2303211D351F8043B40F8043BA0
:1013000051F8043B40F8043B51F8043B40F8043BDF
:1013100051F8043B40F8043B103AEDD20C3205D3AF
:1013200051F8043B40F8043B043AF9D2043208D0A7
:10133000D2071CBF11F8013B00F8013B01D30B8819
:1013400003806046704700BF082A13D38B078DD0F7
:1013500010F003038AD0C3F10403D21ADB071CBFC9
:1013600011F8013B00F8013B80D331F8023B20F833
:10137000023B7BE7043AD9D3013A11F8013B00F86C
:10138000013BF9D20B7803704B7843708B788370F4
:1013900060467047000000000000000000000000F0
:1013A000000000000000000000000000000000003D
:1013B000000000000000000000000000000000002D
:1013C00090F800F06DE9024520F007016FF0000C85
:1013D00010F0070491F820F040F049804FF000042D
:1013E0006FF00700D1E9002391F840F000F1080008
:1013F00082FA4CF2A4FA8CF283FA4CF3A2FA8CF340
:101400004BBBD1E9022382FA4CF200F10800A4FAA6
:101410008CF283FA4CF3A2FA8CF3E3B9D1E90423FA
:1014200082FA4CF200F10800A4FA8CF283FA4CF331
:10143000A2FA8CF37BB9D1E9062301F1200182FAEB
:101440004CF200F10800A4FA8CF283FA4CF3A2FAF1
:101450008CF3002BC6D0002A04BF04301A4612BAFF
:10146000B2FA82F2FDE8024500EBD2007047D1E902
:10147000002304F00305C4F100004FEAC50514F091
:10148000040F91F840F00CFA05F562EA05021CBF62
:1014900063EA050362464FF00004A9E780B500AF98
:1014A0000B4B1B680A4A43F400731360084B1B681C
:1014B000074A43F480631360032000F029FD0F20E6
:1014C00000F008F802F09DF90023184680BD00BF27
:1014D000003C024080B582B000AF7860124B1A68C1
:1014E000124B1B7819464FF47A73B3FBF1F3B2FB3E
:1014F000F3F3184600F041FD0346002B01D0012311
:101500000EE07B680F2B0AD8002279684FF0FF307D
:1015100000F009FD064A7B681360002300E0012308
:1015200018460837BD4680BD280000200400002072
:101530000000002080B400AF064B1B781A46064B13
:101540001B681344044A136000BFBD465DF8047B6A
:10155000704700BF04000020F00A002080B400AFF4
:10156000034B1B681846BD465DF8047B704700BFFF
:10157000F00A002080B584B000AF78600023FB73D0
:101580007B68002B01D1012333E07B681B6C002BAF
:1015900009D1786800F031F87B6800225A647B68D2
:1015A000002283F83C207B681B6C03F01003002BA7
:1015B00018D17B681B6C23F4885323F0020343F09B
:1015C00002027B681A64786800F054FA7B68002293
:1015D0005A647B681B6C23F0030343F001027B68B1
:1015E0001A6401E00123FB737B68002283F83C202E
:1015F000FB7B18461037BD4680BD80B483B000AF7A
:10160000786000BF0C37BD465DF8047B7047000072
:1016100080B586B000AFF860B9607A6000233B61A6
:10162000FB6893F83C30012B01D10223CCE0FB682E
:10163000012283F83C20FB681B689B6803F00103D0
:10164000012B18D0FB681B689A68FB681B6842F086
:1016500001029A605E4B1B685E4AA2FB03239A0C50
:1016600013465B0013443B6102E03B69013B3B6175
:101670003B69002BF9D1FB681B689B6803F00103F1
:10168000012B40F0A080FB681B6C23F4E06323F087
:10169000010343F48072FB681A64FB681B685B6893
:1016A00003F48063002B07D0FB681B6C23F44053CA
:1016B00043F48052FB681A64FB681B6C03F480538C
:1016C000B3F5805F06D1FB685B6C23F00602FB6814
:1016D0005A6402E0FB6800225A64FB68002283F827
:1016E0003C203D4B7B61FB689B6B3C4ADA63FB68AB
:1016F0009B6B3B4A1A64FB689B6B3A4ADA64FB6853
:101700001B686FF022021A60FB681B685A68FB684E
:101710001B6842F080625A60FB681B689A68FB682D
:101720001B6842F480729A60FB68986BFB681B68C8
:101730004C331946BA687B6800F0E6FC7B695B684D
:1017400003F01F03002B2AD1FB681B68264A934233
:1017500015D0FB681B68254A934205D11E4B5B6878
:1017600003F01F03002B0AD0FB681B68204A93423A
:1017700029D1194B5B6803F01F030F2B23D8FB689B
:101780001B689B6803F04053002B1CD1FB681B684F
:101790009A68FB681B6842F080429A6013E0FB681D
:1017A0001B68114A93420ED1FB681B689B6803F0CB
:1017B0004053002B07D1FB681B689A68FB681B68C5
:1017C00042F080429A60002318461837BD4680BD1B
:1017D0002800002083DE1B43002301406D1C00080D
:1017E000271D0008431D0008002001400021014082
:1017F0000022014080B483B000AF786000BF0C3796
:10180000BD465DF8047B704780B483B000AF78605C
:1018100000BF0C37BD465DF8047B704780B483B0D1
:1018200000AF786000BF0C37BD465DF8047B7047A1
:1018300080B485B000AF786039600023BB607B68FE
:1018400093F83C30012B01D1022305E17B68012292
:1018500083F83C203B681B68092B25D97B681B68F3
:10186000D9683B681B689BB21A4613465B00134459
:101870001E3B072202FA03F3DA437B681B680A4027
:10188000DA607B681B68D9683B689A683B681B68AC
:101890009BB2184603465B0003441E3B9A407B689C
:1018A0001B680A43DA6022E07B681B6819693B68A1
:1018B0001B689BB21A4613465B001344072202FAC8
:1018C00003F3DA437B681B680A401A617B681B6874
:1018D00019693B689A683B681B689BB218460346C7
:1018E0005B0003449A407B681B680A431A613B68AB
:1018F0005B68062B24D87B681B68596B3B685A6869
:1019000013469B001344053B1F2202FA03F3DA43FC
:101910007B681B680A405A637B681B68596B3B688D
:101920001B689BB218463B685A6813469B001344D9
:10193000053B00FA03F27B681B680A435A634CE0DC
:101940003B685B680C2B24D87B681B68196B3B6871
:101950005A6813469B001344233B1F2202FA03F3E9
:10196000DA437B681B680A401A637B681B68196B43
:101970003B681B689BB218463B685A6813469B003D
:101980001344233B00FA03F27B681B680A431A6383
:1019900023E07B681B68D96A3B685A6813469B0042
:1019A0001344413B1F2202FA03F3DA437B681B68AE
:1019B0000A40DA627B681B68D96A3B681B689BB285
:1019C00018463B685A6813469B001344413B00FA93
:1019D00003F27B681B680A43DA62224BFB607B6878
:1019E0001B68214A934209D13B681B68122B05D121
:1019F000FB685B6843F48002FB685A607B681B6885
:101A0000194A934223D13B681B68102B03D03B68D3
:101A10001B68112B1BD1FB685B6843F40002FB6859
:101A20005A603B681B68102B11D1104B1B68104A81
:101A3000A2FB03239A0C13469B0013445B00BB607C
:101A400002E0BB68013BBB60BB68002BF9D17B683F
:101A5000002283F83C20002318461437BD465DF869
:101A6000047B704700230140002001402800002033
:101A700083DE1B4380B485B000AF7860794BFB6098
:101A8000FB685B6823F44032FB685A60FB685A6865
:101A90007B685B681A43FB685A607B681B685A68FE
:101AA0007B681B6822F480725A607B681B685968E7
:101AB0007B681B691A027B681B680A435A607B6853
:101AC0001B685A687B681B6822F040725A607B680A
:101AD0001B6859687B689A687B681B680A435A6070
:101AE0007B681B689A687B681B6822F400629A60B6
:101AF0007B681B6899687B68DA687B681B680A43A7
:101B00009A607B689B6A584A934222D07B681B6824
:101B10009A687B681B6822F070629A607B681B6819
:101B200099687B689A6A7B681B680A439A607B683D
:101B30001B689A687B681B6822F040529A607B6839
:101B40001B6899687B68DA6A7B681B680A439A603D
:101B50000FE07B681B689A687B681B6822F07062E4
:101B60009A607B681B689A687B681B6822F0405209
:101B70009A607B681B689A687B681B6822F0020287
:101B80009A607B681B6899687B681B7E5A007B683B
:101B90001B680A439A607B6893F82030002B1BD0A7
:101BA0007B681B685A687B681B6842F400625A6055
:101BB0007B681B685A687B681B6822F460425A6025
:101BC0007B681B6859687B685B6A013B5A037B68CA
:101BD0001B680A435A6007E07B681B685A687B6889
:101BE0001B6822F400625A607B681B68DA6A7B68B3
:101BF0001B6822F47002DA627B681B68D96A7B6812
:101C0000DB69013B1A057B681B680A43DA627B6863
:101C10001B689A687B681B6822F400729A607B6874
:101C20001B6899687B6893F830305A027B681B68A0
:101C30000A439A607B681B689A687B681B6822F479
:101C400080629A607B681B6899687B685B699A020E
:101C50007B681B680A439A6000BF1437BD465DF875
:101C6000047B7047002301400100000F80B584B061
:101C700000AF78607B689B6BFB60FB681B6C03F0BC
:101C80005003002B3CD1FB681B6C43F40072FB68D3
:101C90001A64FB681B689B6803F04053002B2BD130
:101CA000FB681B7E002B27D1FB681B68DB6A03F4F3
:101CB0007003002B06D0FB681B689B6803F48063ED
:101CC000002B19D1FB681B685A68FB681B6822F05F
:101CD00020025A60FB681B6C23F48072FB681A6454
:101CE000FB681B6C03F48053002B05D1FB681B6C55
:101CF00043F00102FB681A64F868FFF77BFD0EE011
:101D0000FB681B6C03F01003002B03D0F868FFF78F
:101D100085FD04E0FB689B6BDB6C7868984700BF2F
:101D20001037BD4680BD80B584B000AF78607B6859
:101D30009B6BFB60F868FFF767FD00BF1037BD467F
:101D400080BD80B584B000AF78607B689B6BFB6022
:101D5000FB6840221A64FB685B6C43F00402FB687A
:101D60005A64F868FFF75AFD00BF1037BD4680BDC2
:101D700080B485B000AF78607B6803F00703FB6038
:101D80000C4BDB68BB60BA684FF6FF031340BB60C7
:101D9000FB681A02BB68134343F0BF6343F400338C
:101DA000BB60044ABB68D36000BF1437BD465DF812
:101DB000047B704700ED00E080B400AF044BDB68AB
:101DC0001B0A03F007031846BD465DF8047B704705
:101DD00000ED00E080B483B000AF0346FB7197F9DB
:101DE0000730002B0BDBFB7903F01F02074997F943
:101DF00007305B09012000FA02F241F8232000BFFE
:101E00000C37BD465DF8047B704700BF00E100E081
:101E100080B483B000AF03463960FB7197F9073097
:101E2000002B0ADB3B68DAB20C4997F90730120144
:101E3000D2B20B4483F800230AE03B68DAB20849C7
:101E4000FB7903F00F03043B1201D2B20B441A7664
:101E500000BF0C37BD465DF8047B704700E100E031
:101E600000ED00E080B489B000AFF860B9607A603E
:101E7000FB6803F00703FB61FB69C3F10703042B55
:101E800028BF0423BB61FB690433062B02D9FB691D
:101E9000033B00E000237B614FF0FF32BB6902FA95
:101EA00003F3DA43BB681A407B699A404FF0FF3175
:101EB0007B6901FA03F3D9437B680B40134318464F
:101EC0002437BD465DF8047B7047000080B582B0C2
:101ED00000AF78607B68013BB3F1807F01D30123C1
:101EE0000FE00A4A7B68013B53600F214FF0FF303F
:101EF000FFF78EFF054B00229A60044B07221A6001
:101F0000002318460837BD4680BD00BF10E000E042
:101F100080B582B000AF78607868FFF729FF00BF16
:101F20000837BD4680BD80B586B000AF0346B960B6
:101F30007A60FB7300237B61FFF73EFF78617A686C
:101F4000B9687869FFF78EFF024697F90F3011469E
:101F50001846FFF75DFF00BF1837BD4680BD80B54E
:101F600082B000AF0346FB7197F907301846FFF7C0
:101F700031FF00BF0837BD4680BD80B582B000AFDD
:101F800078607868FFF7A2FF034618460837BD4619
:101F900080BD80B500AF00F002F800BF80BD80B406
:101FA00000AF00BFBD465DF8047B704780B586B0CA
:101FB00000AF786000237B61FFF7D0FA38617B685F
:101FC000002B01D1012399E07B68002283F83420A3
:101FD0007B68022283F835207B681B681A687B685F
:101FE0001B6822F001021A600FE0FFF7B7FA024601
:101FF0003B69D31A052B08D97B6820225A657B6878
:10200000032283F83520032378E07B681B681B6874
:1020100003F00103002BE8D17B681B681B687B6120
:102020007A69384B13407B617B685A687B689B6890
:102030001A437B68DB681A437B681B691A437B6819
:102040005B691A437B689B691A437B68DB691A43A7
:102050007B681B6A13437A6913437B617B685B6A05
:10206000042B07D17B68DA6A7B681B6B13437A69A0
:1020700013437B617B681B687A691A607B681B6805
:102080005B697B617B6923F007037B617B685B6A2B
:102090007A6913437B617B685B6A042B17D17B6889
:1020A0009B6A7A6913437B617B68DB6A002B0ED0E5
:1020B000786800F0EDF80346002B08D07B684022DA
:1020C0005A657B68012283F83520012316E07B687E
:1020D0001B687A695A61786800F0A4F80346FB60CF
:1020E0007B68DB6D3F229A40FB689A607B68002228
:1020F0005A657B68012283F835200023184618377B
:10210000BD4680BD3F8010F080B586B000AFF8605E
:10211000B9607A603B600023FB75FB689B6D3B6197
:10212000FB6893F83430012B01D1022348E0FB68AF
:10213000012283F83420FB6893F83530DBB2012BA1
:1021400037D1FB68022283F83520FB6800225A65EC
:102150003B687A68B968F86800F036F8FB68DB6DB0
:102160003F229A403B699A60FB681B681A68FB68CB
:102170001B6842F016021A60FB681B685A69FB680C
:102180001B6842F080025A61FB681B6C002B07D071
:10219000FB681B681A68FB681B6842F008021A603B
:1021A000FB681B681A68FB681B6842F001021A6032
:1021B00005E0FB68002283F834200223FB75FB7DD9
:1021C00018461837BD4680BD80B485B000AFF860B2
:1021D000B9607A603B60FB681B681A68FB681B6823
:1021E00022F480221A60FB681B683A685A60FB6818
:1021F0009B68402B08D1FB681B687A689A60FB6873
:102200001B68BA68DA6007E0FB681B68BA689A6006
:10221000FB681B687A68DA6000BF1437BD465DF85A
:10222000047B704780B485B000AF78607B681B6822
:10223000DBB2103B144AA2FB03231B09FB60134AC9
:10224000FB6813441B781A467B68DA65FB68032B2E
:1022500009D97B681B6823F47F7323F003031A1DDD
:102260007B689A6507E07B681B6823F47F7323F023
:1022700003037A6893657B689B6D18461437BD46E7
:102280005DF8047B704700BFABAAAAAAC8DD0008AE
:1022900080B485B000AF78600023FB737B689B6AD5
:1022A000BB607B689B69002B1FD1BB68032B55D893
:1022B00001A252F823F000BFC9220008DB22000867
:1022C000C92200085D2300087B68DB6A03F0807385
:1022D000002B45D00123FB7342E07B68DB6AB3F13E
:1022E000C07F3FD10123FB733CE07B689B69B3F562
:1022F000005F21D1BB68032B36D801A252F823F02E
:1023000011230008172300081123000829230008BF
:102310000123FB732FE07B68DB6A03F08073002BE3
:1023200024D00123FB7321E07B68DB6AB3F1C07F1B
:102330001ED10123FB731BE0BB68022B02D9032BC8
:1023400003D018E00123FB7315E07B68DB6A03F020
:102350008073002B0ED00123FB730BE000BF0AE05B
:1023600000BF08E000BF06E000BF04E000BF02E0DD
:1023700000BF00E000BFFB7B18461437BD465DF888
:10238000047B704780B489B000AF78603960002367
:102390007B6100233B610023BB610023FB616BE198
:1023A0000122FB6902FA03F37B613B681B687A69CF
:1023B00013403B613A697B699A4240F05A813B681D
:1023C0005B68022B03D03B685B68122B23D1FB694F
:1023D000DA087B68083253F82230BB61FB6903F0EE
:1023E00007039B000F2202FA03F3DB43BA69134091
:1023F000BB613B681A69FB6903F007039B0002FAA3
:1024000003F3BA691343BB61FB69DA087B680832DE
:10241000B96943F822107B681B68BB61FB695B00EC
:10242000032202FA03F3DB43BA691340BB613B6842
:102430005B6803F00302FB695B0002FA03F3BA690D
:102440001343BB617B68BA691A603B685B68012B08
:102450000BD03B685B68022B07D03B685B68112B95
:1024600003D03B685B68122B30D17B689B68BB61F3
:10247000FB695B00032202FA03F3DB43BA691340F2
:10248000BB613B68DA68FB695B0002FA03F3BA6977
:102490001343BB617B68BA699A607B685B68BB6108
:1024A0000122FB6902FA03F3DB43BA691340BB6103
:1024B0003B685B681B0903F00102FB6902FA03F346
:1024C000BA691343BB617B68BA695A607B68DB6891
:1024D000BB61FB695B00032202FA03F3DB43BA69C9
:1024E0001340BB613B689A68FB695B0002FA03F327
:1024F000BA691343BB617B68BA69DA603B685B68A1
:1025000003F08053002B00F0B4800023FB605F4B8E
:102510005B6C5E4A43F4804353645C4B5B6C03F436
:102520008043FB60FB685A4AFB699B08023352F800
:102530002330BB61FB6903F003039B000F2202FA07
:1025400003F3DB43BA691340BB617B68514A934292
:102550002BD07B68504A934225D07B684F4A9342E8
:102560001FD07B684E4A934219D07B684D4A9342F4
:1025700013D07B684C4A93420DD07B684B4A934200
:1025800007D07B684A4A934201D107230EE0082313
:102590000CE006230AE0052308E0042306E00323F9
:1025A00004E0022302E0012300E00023FA6902F0C4
:1025B000030292009340BA691343BB613449FB693B
:1025C0009B080233BA6941F823203A4B1B68BB6170
:1025D0003B69DB43BA691340BB613B685B6803F44A
:1025E0008033002B03D0BA693B691343BB61314A86
:1025F000BB6913602F4B5B68BB613B69DB43BA6906
:102600001340BB613B685B6803F40033002B03D0CD
:10261000BA693B691343BB61264ABB695360254BCA
:102620009B68BB613B69DB43BA691340BB613B6894
:102630005B6803F48013002B03D0BA693B69134332
:10264000BB611C4ABB6993601A4BDB68BB613B6989
:10265000DB43BA691340BB613B685B6803F400135A
:10266000002B03D0BA693B691343BB61114ABB69B4
:10267000D360FB690133FB61FB690F2B7FF690AEE2
:1026800000BF2437BD465DF8047B70470038024028
:1026900000380140000002400004024000080240EF
:1026A000000C0240001002400014024000180240DA
:1026B000001C0240003C014080B487B000AF78604D
:1026C000396000233B610023FB600023BB600023D3
:1026D0007B61CDE001227B6902FA03F33B613A683A
:1026E0003B691340FB60FA683B699A4240F0BD8049
:1026F000644A7B699B08023352F82330BB607B69D4
:1027000003F003039B000F2202FA03F3BA6813409D
:10271000BB607B685C4A93422BD07B685B4A9342E8
:1027200025D07B685A4A93421FD07B68594A93420E
:1027300019D07B68584A934213D07B68574A93421A
:102740000DD07B68564A934207D07B68554A934226
:1027500001D107230EE008230CE006230AE005233D
:1027600008E0042306E0032304E0022302E001233F
:1027700000E000237A6902F0030292009340BA68F5
:102780009A4232D17B6903F003039B000F2202FAC5
:1027900003F3BB603B4A7B699B08023352F823106A
:1027A000BB68DA4337487B699B080A40023340F82C
:1027B00023203D4B1A68FB68DB433B4913400B6009
:1027C000394B5A68FB68DB43374913404B60364B43
:1027D0009A68FB68DB43344913408B60324BDA68FC
:1027E000FB68DB4330491340CB607B681A687B6928
:1027F0005B00032101FA03F3DB431A407B681A6094
:102800007B69DA087B68083253F822107B6903F091
:1028100007039B000F2202FA03F3DB437A69D20815
:1028200019407B68083243F822107B689A687B69FC
:102830005B00032101FA03F3DB431A407B689A60D3
:102840007B685A6801217B6901FA03F3DB431A4074
:102850007B685A607B68DA687B695B00032101FA58
:1028600003F3DB431A407B68DA607B6901337B61E9
:102870007B690F2B7FF62EAF00BF1C37BD465DF87E
:10288000047B704700380140000002400004024011
:1028900000080240000C02400010024000140240F8
:1028A00000180240001C0240003C014080B485B08A
:1028B00000AF78600B467B807B681A697B88134089
:1028C000002B02D00123FB7301E00023FB73FB7B91
:1028D00018461437BD465DF8047B704780B483B05A
:1028E00000AF78600B467B8013467B707B78002BB3
:1028F00003D07A887B689A6103E07B881A047B683E
:102900009A6100BF0C37BD465DF8047B704780B408
:1029100083B000AF78600B467B807B685A697B8808
:102920001A407B889A4204D17B881A047B689A619A
:1029300002E07A887B689A6100BF0C37BD465DF87B
:10294000047B704780B584B000AF78607B68002B53
:1029500001D101230FE17B6893F83D30DBB2002BFE
:1029600006D17B68002283F83C20786800F012F9D9
:102970007B68242283F83D207B681B681A687B688B
:102980001B6822F001021A6001F04AFBF8607B68C4
:102990005B687B4A934207D8FB687A4A934294BFAC
:1029A00001230023DBB206E0FB68774A934294BF21
:1029B00001230023DBB2002B01D00123DBE0FB6805
:1029C000724AA2FB03239B0CBB607B681B685B689D
:1029D00023F03F017B681B68BA680A435A607B6832
:1029E0001B681B6A23F03F017B685B68644A934263
:1029F00002D8BB68013309E0BB684FF4967202FB52
:102A000003F3634AA2FB03239B0901337A6812682C
:102A10000B4313627B681B68DB6923F44F4222F08F
:102A2000FF027B685B6856498B420DD8FB68591ED4
:102A30007B685B685B00B1FBF3F30133C3F30B030B
:102A4000042B38BF04234FE07B689B68002B11D117
:102A5000FB68581E7B6859680B465B000B44B0FB53
:102A6000F3F30133C3F30B03002B0CBF012300234B
:102A7000DBB212E0FB68581E7B6859680B469B006E
:102A80000B4499000B44B0FBF3F30133C3F30B0386
:102A9000002B0CBF01230023DBB2002B01D001234C
:102AA00022E07B689B68002B0ED1FB68581E7B6878
:102AB00059680B465B000B44B0FBF3F30133C3F3DF
:102AC0000B0343F400430FE0FB68581E7B68596812
:102AD0000B469B000B4499000B44B0FBF3F301330E
:102AE000C3F30B0343F44043796809681343CB6194
:102AF0007B681B681B6823F0C0017B68DA697B6810
:102B00001B6A1A437B681B680A431A607B681B6850
:102B10009B6823F4034323F0FF037A6811697A6802
:102B2000D26811437A6812680B4393607B681B6814
:102B3000DB6823F0FF017B685A697B689B691A4355
:102B40007B681B680A43DA607B681B681A687B68CD
:102B50001B6842F001021A607B6800221A647B68DD
:102B6000202283F83D207B6800221A637B680022C4
:102B700083F83E20002318461037BD4680BD00BFB5
:102B8000A08601007F841E00FF083D0083DE1B43FA
:102B9000D34D621080B483B000AF786000BF0C37B3
:102BA000BD465DF8047B704780B588B002AFF86021
:102BB0007A601A460B467B8113463B81FEF7CEFCBA
:102BC0007861FB6893F83D30DBB2202B40F0E08069
:102BD0007B690093192301227049F86800F034FCE6
:102BE0000346002B01D00223D3E0FB6893F83C306E
:102BF000012B01D10223CCE0FB68012283F83C20A9
:102C0000FB681B681B6803F00103012B07D0FB68FE
:102C10001B681A68FB681B6842F001021A60FB68B7
:102C20001B681A68FB681B6822F400621A60FB6864
:102C3000212283F83D20FB68102283F83E20FB68A8
:102C400000221A64FB687A685A62FB683A895A85DE
:102C5000FB685B8D9AB2FB681A85FB68504ADA62A2
:102C600079897B693A6AF86800F0C2FA0346002B5A
:102C700001D001238DE000233B61FB681B685B6989
:102C80003B61FB681B689B693B613B6966E07A6955
:102C9000396AF86800F0AEFC0346002B0DD0FB68E3
:102CA0001B6C042B07D1FB681B681A68FB681B6848
:102CB00042F400721A6001236BE0FB685B6A1A78C9
:102CC000FB681B681A61FB685B6A5A1CFB685A62E6
:102CD000FB685B8D9BB2013B9AB2FB685A85FB682F
:102CE0001B8D013B9AB2FB681A85FB681B685B6908
:102CF00003F00403042B1BD1FB681B8D002B17D0A2
:102D0000FB685B6A1A78FB681B681A61FB685B6A80
:102D10005A1CFB685A62FB685B8D9BB2013B9AB2FE
:102D2000FB685A85FB681B8D013B9AB2FB681A85CC
:102D30007A69396AF86800F09EFC0346002B0DD0D2
:102D4000FB681B6C042B07D1FB681B681A68FB68C7
:102D50001B6842F400721A6001231AE0FB681B8DA5
:102D6000002B94D1FB681B681A68FB681B6842F44F
:102D700000721A60FB68202283F83D20FB68002265
:102D800083F83E20FB68002283F83C20002300E00B
:102D9000022318461837BD4680BD00BF0200100050
:102DA0000000FFFF80B58CB002AFF8607A601A4671
:102DB0000B467B8113463B81FEF7D0FB7862FB68B4
:102DC00093F83D30DBB2202B40F00B827B6A0093FE
:102DD000192301227C49F86800F036FB0346002BDA
:102DE00001D00223FEE1FB6893F83C30012B01D1B6
:102DF0000223F7E1FB68012283F83C20FB681B6893
:102E00001B6803F00103012B07D0FB681B681A68DD
:102E1000FB681B6842F001021A60FB681B681A68B5
:102E2000FB681B6822F400621A60FB68222283F8A8
:102E30003D20FB68102283F83E20FB6800221A64C4
:102E4000FB687A685A62FB683A895A85FB685B8D31
:102E50009AB2FB681A85FB685C4ADA6279897B6AF8
:102E60003A6BF86800F03AFA0346002B01D00123D0
:102E7000B8E1FB681B8D002B13D100233B62FB687C
:102E80001B685B693B62FB681B689B693B623B6A32
:102E9000FB681B681A68FB681B6842F400721A60C2
:102EA0008CE1FB681B8D012B1BD1FB681B681A682A
:102EB000FB681B6822F480621A600023FB61FB68D8
:102EC0001B685B69FB61FB681B689B69FB61FB69B5
:102ED000FB681B681A68FB681B6842F400721A6082
:102EE0006CE1FB681B8D022B1BD1FB681B681A6809
:102EF000FB681B6822F480621A60FB681B681A6812
:102F0000FB681B6842F400621A600023BB61FB6827
:102F10001B685B69BB61FB681B689B69BB61BB6924
:102F20004CE1FB681B681A68FB681B6842F480620E
:102F30001A6000237B61FB681B685B697B61FB682F
:102F40001B689B697B617B6938E1FB681B8D032BE8
:102F500000F2F180FB681B8D012B23D17A6A396B5B
:102F6000F86800F0C9FB0346002B01D0012339E1CA
:102F7000FB681B681A69FB685B6AD2B21A70FB684F
:102F80005B6A5A1CFB685A62FB681B8D013B9AB254
:102F9000FB681A85FB685B8D9BB2013B9AB2FB68AC
:102FA0005A850BE1FB681B8D022B4ED17B6A009387
:102FB0003B6B00220649F86800F046FA0346002BF6
:102FC00008D001230EE100BF020010000000FFFF47
:102FD00004000100FB681B681A68FB681B6842F468
:102FE00000721A60FB681B681A69FB685B6AD2B2E0
:102FF0001A70FB685B6A5A1CFB685A62FB681B8D7F
:10300000013B9AB2FB681A85FB685B8D9BB2013B62
:103010009AB2FB685A85FB681B681A69FB685B6A91
:10302000D2B21A70FB685B6A5A1CFB685A62FB6872
:103030001B8D013B9AB2FB681A85FB685B8D9BB2C6
:10304000013B9AB2FB685A85B8E07B6A00933B6B00
:1030500000226649F86800F0F7F90346002B01D01A
:103060000123BFE0FB681B681A68FB681B6822F439
:1030700080621A60FB681B681A69FB685B6AD2B2DF
:103080001A70FB685B6A5A1CFB685A62FB681B8DEE
:10309000013B9AB2FB681A85FB685B8D9BB2013BD2
:1030A0009AB2FB685A857B6A00933B6B00224F49BA
:1030B000F86800F0C9F90346002B01D0012391E024
:1030C000FB681B681A68FB681B6842F400721A6090
:1030D000FB681B681A69FB685B6AD2B21A70FB68EE
:1030E0005B6A5A1CFB685A62FB681B8D013B9AB2F3
:1030F000FB681A85FB685B8D9BB2013B9AB2FB684B
:103100005A85FB681B681A69FB685B6AD2B21A7041
:10311000FB685B6A5A1CFB685A62FB681B8D013BAB
:103120009AB2FB681A85FB685B8D9BB2013B9AB231
:10313000FB685A8542E07A6A396BF86800F0DCFA7D
:103140000346002B01D001234CE0FB681B681A6981
:10315000FB685B6AD2B21A70FB685B6A5A1CFB6838
:103160005A62FB681B8D013B9AB2FB681A85FB68AB
:103170005B8D9BB2013B9AB2FB685A85FB681B686A
:103180005B6903F00403042B18D1FB681B681A6900
:10319000FB685B6AD2B21A70FB685B6A5A1CFB68F8
:1031A0005A62FB681B8D013B9AB2FB681A85FB686B
:1031B0005B8D9BB2013B9AB2FB685A85FB681B8D05
:1031C000002B7FF4C2AEFB68202283F83D20FB6811
:1031D000002283F83E20FB68002283F83C20002375
:1031E00000E0022318462837BD4680BD04000100D8
:1031F00080B588B002AFF8607A603B600B467B8197
:10320000FB68DB6A7B617B69082B06D07B69012B3D
:1032100003D07B6913F5803F08D1FB681B681A68EF
:10322000FB681B6842F480721A600BE0FB681B6B42
:10323000122B07D1FB681B681A68FB681B6842F4F5
:1032400080721A603B6800937B6800224FF0011186
:10325000F86800F0F9F80346002B01D0012335E0AF
:10326000FB681B69B3F5804F08D17B89DBB21A4636
:10327000FB681B6802F0FE021A611BE07B89DB1110
:10328000DBB203F00603DBB263F00F03DAB2FB68D4
:103290001B681A613B687A680E49F86800F02BF9E0
:1032A0000346002B01D0012310E07B89DAB2FB68D2
:1032B0001B681A613B687A680749F86800F01BF9D7
:1032C0000346002B01D0012300E0002318461837E5
:1032D000BD4680BD080001000200010080B588B035
:1032E00002AFF8607A603B600B467B81FB68DB6A6B
:1032F0007B61FB681B681A68FB681B6842F480628C
:103300001A607B69082B06D07B69012B03D07B698F
:1033100013F5803F08D1FB681B681A68FB681B68BF
:1033200042F480721A600BE0FB681B6B112B07D113
:10333000FB681B681A68FB681B6842F480721A609D
:103340003B6800937B6800224FF00111F86800F0A1
:103350007BF80346002B01D001236DE0FB681B695D
:10336000B3F5804F08D17B89DBB243F00103DAB2B9
:10337000FB681B681A6153E07B89DB11DBB203F049
:103380000603DBB263F00F03DAB2FB681B681A6155
:103390003B687A682A49F86800F0ADF80346002BCC
:1033A00001D0012348E07B89DAB2FB681B681A610F
:1033B0003B687A682349F86800F09DF80346002BC3
:1033C00001D0012338E000233B61FB681B685B6987
:1033D0003B61FB681B689B693B613B69FB681B6841
:1033E0001A68FB681B6842F480721A603B6800939D
:1033F0007B6800224FF00111F86800F025F80346C1
:10340000002B01D0012317E07B89DB11DBB203F035
:103410000603DBB263F00E03DAB2FB681B681A61C5
:103420003B687A680749F86800F065F80346002BA6
:1034300001D0012300E0002318461837BD4680BDA7
:10344000080001000200010080B584B000AFF86000
:10345000B9603B601346FB7125E03B68B3F1FF3F69
:1034600021D0FEF77BF80246BB69D31A3A689A422C
:1034700002D33B68002B16D1FB6800221A63FB685D
:10348000202283F83D20FB68002283F83E20FB6861
:103490001B6C43F02002FB681A64FB68002283F86F
:1034A0003C20012323E0BB681B0CDBB2012B0DD1B8
:1034B000FB681B685B69DA43BB6813409BB2002B57
:1034C0000CBF01230023DBB21A460CE0FB681B682B
:1034D0009B69DA43BB6813409BB2002B0CBF0123EE
:1034E0000023DBB21A46FB799A42B6D00023184675
:1034F0001037BD4680BD80B584B000AFF860B960BC
:103500007A603B6051E0FB681B685B6903F4806391
:10351000B3F5806F23D1FB681B681A68FB681B68D2
:1035200042F400721A60FB681B686FF480625A6193
:10353000FB6800221A63FB68202283F83D20FB68A9
:10354000002283F83E20FB681B6C43F00402FB68FA
:103550001A64FB68002283F83C20012346E07B6864
:10356000B3F1FF3F21D0FDF7F9FF02463B68D31AC4
:103570007A689A4202D37B68002B16D1FB6800223E
:103580001A63FB68202283F83D20FB68002283F841
:103590003E20FB681B6C43F02002FB681A64FB684A
:1035A000002283F83C20012320E0BB681B0CDBB227
:1035B000012B0CD1FB681B685B69DA43BB681340C5
:1035C0009BB2002B14BF01230023DBB20BE0FB688E
:1035D0001B689B69DA43BB6813409BB2002B14BF86
:1035E00001230023DBB2002B8DD1002318461037B6
:1035F000BD4680BD80B584B000AFF860B9607A6028
:103600002DE0F86800F0CEF80346002B01D001232E
:103610002DE0BB68B3F1FF3F21D0FDF79FFF0246CD
:103620007B68D31ABA689A4202D3BB68002B16D1C2
:10363000FB6800221A63FB68202283F83D20FB68A8
:10364000002283F83E20FB681B6C43F02002FB68DD
:103650001A64FB68002283F83C20012307E0FB6822
:103660001B685B6903F08003802BCAD100231846D6
:103670001037BD4680BD80B584B000AFF860B9603A
:103680007A602DE0F86800F08DF80346002B01D039
:1036900001232DE0BB68B3F1FF3F21D0FDF75EFFB2
:1036A00002467B68D31ABA689A4202D3BB68002BE1
:1036B00016D1FB6800221A63FB68202283F83D20A4
:1036C000FB68002283F83E20FB681B6C43F020025D
:1036D000FB681A64FB68002283F83C20012307E0A2
:1036E000FB681B685B6903F00403042BCAD1002349
:1036F00018461037BD4680BD80B584B000AFF86075
:10370000B9607A6042E0FB681B685B6903F01003F4
:10371000102B19D1FB681B686FF010025A61FB680F
:1037200000221A63FB68202283F83D20FB680022F8
:1037300083F83E20FB681A6CFB681A64FB68002261
:1037400083F83C20012329E0FDF708FF02467B684F
:10375000D31ABA689A4202D3BB68002B16D1FB6811
:1037600000221A63FB68202283F83D20FB680022B8
:1037700083F83E20FB681B6C43F02002FB681A6450
:10378000FB68002283F83C20012307E0FB681B68EC
:103790005B6903F04003402BB5D100231846103776
:1037A000BD4680BD80B483B000AF78607B681B6885
:1037B0005B6903F48063B3F5806F1BD17B681B6882
:1037C0006FF480625A617B6800221A637B68202252
:1037D00083F83D207B68002283F83E207B681B6CC9
:1037E00043F004027B681A647B68002283F83C2063
:1037F000012300E0002318460C37BD465DF8047B2A
:10380000704780B400AF00BFBD465DF8047B7047D1
:1038100080B586B000AF78607B68002B01D10123B2
:103820002DE27B681B6803F00103002B75D0A34BCE
:103830009B6803F00C03042B0CD0A04B9B6803F097
:103840000C03082B12D19D4B5B6803F48003B3F586
:10385000800F0BD1994B1B6803F40033002B5BD016
:103860007B685B68002B57D1012308E27B685B68AB
:10387000B3F5803F06D1914B1B68904A43F48033E7
:1038800013601DE07B685B68B3F5A02F0CD18B4BF8
:103890001B688A4A43F480231360884B1B68874A5D
:1038A00043F4803313600BE0844B1B68834A23F49A
:1038B00080331360814B1B68804A23F4802313609C
:1038C0007B685B68002B13D0FDF748FE386108E089
:1038D000FDF744FE02463B69D31A642B01D903234A
:1038E000CDE1764B1B6803F40033002BF0D014E0DD
:1038F000FDF734FE386108E0FDF730FE02463B6913
:10390000D31A642B01D90323B9E16C4B1B6803F470
:103910000033002BF0D100E000BF7B681B6803F090
:103920000203002B63D0654B9B6803F00C03002B54
:103930000BD0624B9B6803F00C03082B1CD15F4B30
:103940005B6803F48003002B16D15C4B1B6803F00B
:103950000203002B05D07B68DB68012B01D001231B
:103960008DE1564B1B6823F0F8027B681B69DB0076
:10397000524913430B603AE07B68DB68002B20D090
:103980004F4B01221A60FDF7E9FD386108E0FDF7B1
:10399000E5FD02463B69D31A022B01D903236EE1F0
:1039A000464B1B6803F00203002BF0D0434B1B680F
:1039B00023F0F8027B681B69DB00404913430B606E
:1039C00015E03F4B00221A60FDF7C8FD386108E0A2
:1039D000FDF7C4FD02463B69D31A022B01D903232C
:1039E0004DE1364B1B6803F00203002BF0D17B68DE
:1039F0001B6803F00803002B30D07B685B69002B49
:103A000016D0304B01221A60FDF7A8FD386108E09E
:103A1000FDF7A4FD02463B69D31A022B01D903230B
:103A20002DE1264B5B6F03F00203002BF0D015E075
:103A3000244B00221A60FDF791FD386108E0FDF784
:103A40008DFD02463B69D31A022B01D9032316E1EF
:103A50001A4B5B6F03F00203002BF0D17B681B68ED
:103A600003F00403002B00F0A0800023FB75134B30
:103A70001B6C03F08053002B0FD10023FB600F4B16
:103A80001B6C0E4A43F0805313640C4B1B6C03F009
:103A90008053FB60FB680123FB750B4B1B6803F431
:103AA0008073002B21D1084B1B68074A43F48073B5
:103AB0001360FDF753FD386111E000BF003802408C
:103AC00000004742800E474200700040FDF746FD6F
:103AD00002463B69D31A022B01D90323CFE06A4B7C
:103AE0001B6803F48073002BF0D07B689B68012B6C
:103AF00006D1664B1B6F654A43F0010313671CE058
:103B00007B689B68052B0CD1604B1B6F5F4A43F0B1
:103B1000040313675D4B1B6F5C4A43F0010313679B
:103B20000BE05A4B1B6F594A23F001031367574BA5
:103B30001B6F564A23F0040313677B689B68002BB6
:103B400015D0FDF70BFD38610AE0FDF707FD0246D1
:103B50003B69D31A41F28832934201D903238EE0A4
:103B60004A4B1B6F03F00203002BEED014E0FDF76D
:103B7000F5FC38610AE0FDF7F1FC02463B69D31A17
:103B800041F28832934201D9032378E03F4B1B6F07
:103B900003F00203002BEED1FB7D012B05D13B4B43
:103BA0001B6C3A4A23F0805313647B689B69002B9B
:103BB00064D0364B9B6803F00C03082B5CD07B6809
:103BC0009B69022B41D1324B00221A60FDF7C6FCE3
:103BD000386108E0FDF7C2FC02463B69D31A022BAC
:103BE00001D903234BE0294B1B6803F00073002B22
:103BF000F0D17B68DA697B681B6A1A437B685B6A71
:103C00009B011A437B689B6A5B08013B1B041A43B8
:103C10007B68DB6A1B061D4913434B601C4B01226A
:103C20001A60FDF79BFC386108E0FDF797FC02463F
:103C30003B69D31A022B01D9032320E0134B1B68E5
:103C400003F00073002BF0D018E0114B00221A6033
:103C5000FDF784FC386108E0FDF780FC02463B6913
:103C6000D31A022B01D9032309E0084B1B6803F088
:103C70000073002BF0D101E0012300E0002318467F
:103C80001837BD4680BD00BF0070004000380240BC
:103C90006000474280B584B000AF786039607B68CF
:103CA000002B01D10123CAE0674B1B6803F00F030F
:103CB0003A689A420CD9644B3A68D2B21A70624B95
:103CC0001B6803F00F033A689A4201D00123B6E063
:103CD0007B681B6803F00203002B20D07B681B6805
:103CE00003F00403002B05D0584B9B68574A43F45C
:103CF000E05393607B681B6803F00803002B05D03A
:103D0000524B9B68514A43F4604393604F4B9B680E
:103D100023F0F0027B689B684C4913438B607B68FF
:103D20001B6803F00103002B44D07B685B68012B08
:103D300007D1464B1B6803F40033002B19D1012334
:103D40007DE07B685B68022B03D07B685B68032B9C
:103D500007D13E4B1B6803F00073002B09D10123F0
:103D60006DE03A4B1B6803F00203002B01D10123E5
:103D700065E0364B9B6823F003027B685B68334940
:103D800013438B60FDF7EAFBF8600AE0FDF7E6FB02
:103D90000246FB68D31A41F28832934201D90323C9
:103DA0004DE02A4B9B6803F00C027B685B689B002C
:103DB0009A42EBD1244B1B6803F00F033A689A42F6
:103DC0000CD2214B3A68D2B21A701F4B1B6803F019
:103DD0000F033A689A4201D0012330E07B681B68E8
:103DE00003F00403002B08D0184B9B6823F4E05227
:103DF0007B68DB68154913438B607B681B6803F0A5
:103E00000803002B09D0114B9B6823F460427B68A8
:103E10001B69DB000D4913438B6000F01DF8014660
:103E20000A4B9B681B0903F00F03094AD35C21FA74
:103E300003F3084A13600F20FDF74CFB00231846DC
:103E40001037BD4680BD00BF003C02400038024034
:103E5000A4DE000828000020F0B585B000AF0023E4
:103E60007B600023FB6000233B600023BB60634B4F
:103E70009B6803F00C03042B07D0082B08D0002B01
:103E800040F0B4805E4BBB60B3E05E4BBB60B0E023
:103E90005A4B5B6803F03F037B60584B5B6803F44D
:103EA0008003002B4AD0554B5B689B094FF0000400
:103EB00040F2FF114FF0000203EA010504EA020696
:103EC000294632464FF000034FF00004540144EA03
:103ED000D1644B0119462246491B62EB06024FF0A2
:103EE00000034FF00004940144EA91648B015B1AD3
:103EF00064EB02044FF000014FF00002E20042EADE
:103F00005372D9000B4614465B1944EB06044FF07C
:103F100000014FF00002620242EAD35259020B46FE
:103F20001446184621467B684FF000041A46234683
:103F3000FCF74AFE03460C46FB6049E02F4B5B68EA
:103F40009B094FF0000440F2FF114FF0000203EA1A
:103F5000010504EA0206294632464FF000034FF0FD
:103F60000004540144EAD1644B0119462246491B1E
:103F700062EB06024FF000034FF00004940144EAA4
:103F800091648B015B1A64EB02044FF000014FF067
:103F90000002E20042EA5372D9000B4614465B1954
:103FA00044EB06044FF000014FF00002A20242EA87
:103FB000935299020B461446184621467B684FF0EF
:103FC00000041A462346FCF7FFFD03460C46FB603F
:103FD0000A4B5B681B0C03F0030301335B003B607F
:103FE000FA683B68B2FBF3F3BB6002E0044BBB60D2
:103FF00000BFBB6818461437BD46F0BD003802400C
:104000000024F40000127A0080B400AF034B1B6858
:104010001846BD465DF8047B704700BF28000020AD
:1040200080B500AFFFF7F0FF0146054B9B689B0A88
:1040300003F00703034AD35C21FA03F3184680BD5B
:1040400000380240B4DE000880B500AFFFF7DCFFA7
:104050000146054B9B685B0B03F00703034AD35CE7
:1040600021FA03F3184680BD00380240B4DE000890
:1040700080B582B000AF78607B68002B01D101234E
:104080001DE07B6893F83D30DBB2002B06D17B68E6
:10409000002283F83C20786800F015F87B68022243
:1040A00083F83D207B681A687B6804331946104604
:1040B00000F09CFA7B68012283F83D20002318461B
:1040C0000837BD4680BD80B483B000AF786000BFC4
:1040D0000C37BD465DF8047B704780B485B000AFF7
:1040E00078607B681B68DA687B681B6842F00102B5
:1040F000DA607B681B689B6803F00703FB60FB6862
:10410000062B07D07B681B681A687B681B6842F027
:1041100001021A60002318461437BD465DF8047B7F
:10412000704780B582B000AF78607B68002B01D10A
:1041300001231DE07B6893F83D30DBB2002B06D1F4
:104140007B68002283F83C20786800F015F87B68D3
:10415000022283F83D207B681A687B680433194685
:10416000104600F043FA7B68012283F83D200023CB
:1041700018460837BD4680BD80B483B000AF786074
:1041800000BF0C37BD465DF8047B704780B584B036
:1041900000AF786039607B681B6801223968184677
:1041A00000F074FC7B681B68154A934204D07B685E
:1041B0001B68144A934201D1012300E00023002B25
:1041C00007D07B681B685A6C7B681B6842F400420E
:1041D0005A647B681B689B6803F00703FB60FB68FD
:1041E000062B07D07B681B681A687B681B6842F047
:1041F00001021A60002318461037BD4680BD00BF7B
:10420000000001400004014080B582B000AF78603A
:1042100039607B681B6800223968184600F036FC5C
:104220007B681B68224A934204D07B681B68214A42
:10423000934201D1012300E00023002B17D07B68BB
:104240001B681A6A41F211131340002B0FD17B68CF
:104250001B681A6A40F244431340002B07D17B6865
:104260001B685A6C7B681B6822F400425A647B68A6
:104270001B681A6A41F211131340002B0FD17B689F
:104280001B681A6A40F244431340002B07D17B6835
:104290001B681A687B681B6822F001021A607B6841
:1042A000012283F83D20002318460837BD4680BD13
:1042B000000001400004014080B586B000AF786086
:1042C00039607B68002B01D1012383E07B6893F880
:1042D0003D30DBB2002B06D17B68002283F83C2006
:1042E000786800F07BF87B68022283F83D207B68C9
:1042F0001B689B687A68126823F4804323F00703E5
:1043000093607B681A687B6804331946104600F096
:104310006DF97B681B689B687B617B681B689B6988
:104320003B617B681B681B6AFB603B681B687A69A2
:1043300013437B613B6923F4407323F003033B6128
:104340003B689A683B689B691B0213433A691343B5
:104350003B613B6923F4406323F00C033B613B6901
:1043600023F4704323F0F0033B613B68DA683B6859
:10437000DB691B0213433A6913433B613B681B69CA
:104380001A013B681B6A1B0313433A6913433B61E1
:10439000FB6823F02203FB60FB6823F08803FB60CB
:1043A0003B685A683B685B691B011343FA68134317
:1043B000FB607B681B687A699A607B681B683A6956
:1043C0009A617B681B68FA681A627B68012283F82D
:1043D0003D20002318461837BD4680BD80B483B009
:1043E00000AF786000BF0C37BD465DF8047B7047B6
:1043F00080B582B000AF786039603B68002B02D096
:10440000042B08D00FE07B681B68012200211846AE
:1044100000F03CFB16E07B681B6801220421184673
:1044200000F034FB0EE07B681B6801220021184677
:1044300000F02CFB7B681B6801220421184600F069
:1044400025FB00BF7B681B681A687B681B6842F00D
:1044500001021A60002318460837BD4680BD0000DF
:1044600080B584B000AFF860B9607A60FB6893F8FB
:104470003C30012B01D10223B4E0FB68012283F818
:104480003C20FB68022283F83D207B680C2B00F265
:104490009F8001A252F823F0CD440008D1450008C6
:1044A000D1450008D14500080D450008D145000858
:1044B000D1450008D14500084F450008D145000806
:1044C000D1450008D14500088F450008FB681B68EE
:1044D000B968184600F02AF9FB681B689A69FB68FE
:1044E0001B6842F008029A61FB681B689A69FB68C6
:1044F0001B6822F004029A61FB681B689969BB681B
:104500001A69FB681B680A439A6162E0FB681B68D2
:10451000B968184600F07AF9FB681B689A69FB686D
:104520001B6842F400629A61FB681B689A69FB6829
:104530001B6822F480629A61FB681B689969BB68FA
:104540001B691A02FB681B680A439A6141E0FB6819
:104550001B68B968184600F0CFF9FB681B68DA6978
:10456000FB681B6842F00802DA61FB681B68DA69C5
:10457000FB681B6822F00402DA61FB681B68D969DA
:10458000BB681A69FB681B680A43DA6121E0FB68B3
:104590001B68B968184600F023FAFB681B68DA69E3
:1045A000FB681B6842F40062DA61FB681B68DA6929
:1045B000FB681B6822F48062DA61FB681B68D969BA
:1045C000BB681B691A02FB681B680A43DA6100E0DA
:1045D00000BFFB68012283F83D20FB68002283F8BE
:1045E0003C20002318461037BD4680BD80B485B0FE
:1045F00000AF786039607B681B68FB607B68404A6D
:10460000934213D07B68B3F1804F0FD07B683D4A53
:1046100093420BD07B683C4A934207D07B683B4A6D
:10462000934203D07B683A4A934208D1FB6823F057
:104630007003FB603B685B68FA681343FB607B6850
:104640002F4A93422BD07B68B3F1804F27D07B68F1
:104650002C4A934223D07B682B4A93421FD07B681D
:104660002A4A93421BD07B68294A934217D07B6821
:10467000284A934213D07B68274A93420FD07B6825
:10468000264A93420BD07B68254A934207D07B6829
:10469000244A934203D07B68234A934208D1FB68A3
:1046A00023F44073FB603B68DB68FA681343FB60EC
:1046B000FB6823F080023B685B691343FB607B6807
:1046C000FA681A603B689A687B68DA623B681A6825
:1046D0007B689A627B680A4A934203D07B680C4AE3
:1046E000934203D13B681A697B681A637B68012295
:1046F0005A6100BF1437BD465DF8047B704700BFA8
:10470000000001400004004000080040000C004090
:1047100000040140004001400044014000480140C5
:1047200000180040001C00400020004080B487B00A
:1047300000AF786039607B681B6A23F001027B68F8
:104740001A627B681B6A7B617B685B683B617B6884
:104750009B69FB60FB6823F07003FB60FB6823F040
:104760000303FB603B681B68FA681343FB607B69CB
:1047700023F002037B613B689B687A6913437B618A
:104780007B68204A934203D07B681F4A93420CD136
:104790007B6923F008037B613B68DB687A6913431C
:1047A0007B617B6923F004037B617B68154A93423C
:1047B00003D07B68144A934211D13B6923F4807380
:1047C0003B613B6923F400733B613B685B693A6979
:1047D00013433B613B689B693A6913433B617B68C8
:1047E0003A695A607B68FA689A613B685A687B68E4
:1047F0005A637B687A691A6200BF1C37BD465DF850
:10480000047B7047000001400004014080B487B081
:1048100000AF786039607B681B6A23F010027B6808
:104820001A627B681B6A7B617B685B683B617B68A3
:104830009B69FB60FB6823F4E043FB60FB6823F4A7
:104840004073FB603B681B681B02FA681343FB6004
:104850007B6923F020037B613B689B681B017A69BD
:1048600013437B617B68224A934203D07B68214AD1
:1048700093420DD17B6923F080037B613B68DB6849
:104880001B017A6913437B617B6923F040037B61E1
:104890007B68174A934203D07B68164A934213D130
:1048A0003B6923F480633B613B6923F400633B6114
:1048B0003B685B699B003A6913433B613B689B69BA
:1048C0009B003A6913433B617B683A695A607B6895
:1048D000FA689A613B685A687B689A637B687A6970
:1048E0001A6200BF1C37BD465DF8047B704700BFED
:1048F000000001400004014080B487B000AF786040
:1049000039607B681B6A23F480727B681A627B685B
:104910001B6A7B617B685B683B617B68DB69FB6072
:10492000FB6823F07003FB60FB6823F00303FB606C
:104930003B681B68FA681343FB607B6923F40073D0
:104940007B613B689B681B027A6913437B617B68D0
:10495000214A934203D07B68204A93420DD17B6960
:1049600023F400637B613B68DB681B027A691343B5
:104970007B617B6923F480637B617B68164A934289
:1049800003D07B68154A934213D13B6923F48053CB
:104990003B613B6923F400533B613B685B691B014E
:1049A0003A6913433B613B689B691B013A691343B6
:1049B0003B617B683A695A607B68FA68DA613B68F8
:1049C0005A687B68DA637B687A691A6200BF1C37B1
:1049D000BD465DF8047B70470000014000040140C3
:1049E00080B487B000AF786039607B681B6A23F4BD
:1049F00080527B681A627B681B6A3B617B685B68DC
:104A00007B617B68DB69FB60FB6823F4E043FB6050
:104A1000FB6823F44073FB603B681B681B02FA6869
:104A20001343FB603B6923F400533B613B689B6885
:104A30001B033A6913433B617B68124A934203D0DC
:104A40007B68114A934209D17B6923F480437B61DF
:104A50003B685B699B017A6913437B617B687A6978
:104A60005A607B68FA68DA613B685A687B681A6446
:104A70007B683A691A6200BF1C37BD465DF8047B4B
:104A8000704700BF000001400004014080B487B0BF
:104A900000AFF860B9607A60BB6803F01F030122C1
:104AA00002FA03F37B61FB681A6A7B69DB431A40F5
:104AB000FB681A62FB681A6ABB6803F01F03796817
:104AC00001FA03F31A43FB681A6200BF1C37BD46A4
:104AD0005DF8047B704780B582B000AF78607B687A
:104AE000002B01D101233FE07B6893F83930DBB222
:104AF000002B06D17B68002283F83820786800F00C
:104B000037F87B68242283F839207B681B68DA68D1
:104B10007B681B6822F40052DA60786800F032F893
:104B20007B681B681A697B681B6822F490421A61D3
:104B30007B681B685A697B681B6822F02A025A61ED
:104B40007B681B68DA687B681B6842F40052DA6095
:104B50007B680022DA637B68202283F839207B6837
:104B6000202283F83A20002318460837BD4680BD2E
:104B700080B483B000AF786000BF0C37BD465DF8ED
:104B8000047B7047B0B584B000AF78607B681B6869
:104B90001B6923F440517B68DA687B681B680A4311
:104BA0001A617B689A687B681B691A437B685B693A
:104BB0001A437B68DB691343FB607B681B68DB6817
:104BC00023F4164323F00C037A681268F9680B4348
:104BD000D3607B681B685B6923F440717B689A69CA
:104BE0007B681B680A435A617B68DB69B3F5004F39
:104BF00040F0E4807B681B68AB4A934204D07B683A
:104C00001B68AA4A93426CD1FFF71EFA024613466C
:104C10009B0013449A001A447B685B685B00B2FBFC
:104C2000F3F3A34AA2FB03235B091C01FFF70CFA71
:104C3000024613469B0013449A001A447B685B6843
:104C40005B00B2FBF3F5FFF7FFF9024613469B004A
:104C500013449A001A447B685B685B00B2FBF3F371
:104C6000934AA2FB03235B09642202FB03F3EB1AC2
:104C7000DB0032338E4AA2FB03235B095B0003F4A3
:104C8000F8731C44FFF7E0F9024613469B001344F7
:104C90009A001A447B685B685B00B2FBF3F5FFF790
:104CA000D3F9024613469B0013449A001A447B68CA
:104CB0005B685B00B2FBF3F37D4AA2FB03235B0955
:104CC000642202FB03F3EB1ADB003233784AA2FBC7
:104CD00003235B0903F007027B681B6822449A6088
:104CE00054E1FFF79DF9024613469B0013449A00D6
:104CF0001A447B685B685B00B2FBF3F36C4AA2FB6F
:104D000003235B091C01FFF78BF9024613469B0046
:104D100013449A001A447B685B685B00B2FBF3F5AE
:104D2000FFF77EF9024613469B0013449A001A448B
:104D30007B685B685B00B2FBF3F35D4AA2FB032375
:104D40005B09642202FB03F3EB1ADB003233584A9F
:104D5000A2FB03235B095B0003F4F8731C44FFF719
:104D60005FF9024613469B0013449A001A447B687D
:104D70005B685B00B2FBF3F5FFF752F9024613469E
:104D80009B0013449A001A447B685B685B00B2FB8B
:104D9000F3F3474AA2FB03235B09642202FB03F3FC
:104DA000EB1ADB003233424AA2FB03235B0903F018
:104DB00007027B681B6822449A60E7E07B681B68F7
:104DC000394A934204D07B681B68384A934271D1B8
:104DD000FFF73AF9024613469B0013449A001A441F
:104DE0007B685B689B00B2FBF3F3314AA2FB0323B1
:104DF0005B091C01FFF728F9024613469B00134488
:104E00009A001A447B685B689B00B2FBF3F5FFF7DE
:104E10001BF9024613469B0013449A001A447B6810
:104E20005B689B00B2FBF3F3214AA2FB03235B09FF
:104E3000642202FB03F3EB1A1B0132331C4AA2FB70
:104E400003235B0903F0F0031C44FFF7FDF802465F
:104E500013469B0013449A001A447B685B689B00CE
:104E6000B2FBF3F5FFF7F0F8024613469B0013443C
:104E70009A001A447B685B689B00B2FBF3F30C4A10
:104E8000A2FB03235B09642202FB03F3EB1A1B0161
:104E90003233074AA2FB03235B0903F00F027B684E
:104EA0001B6822449A6071E0001001400014014028
:104EB0001F85EB51FFF7B4F8024613469B001344DD
:104EC0009A001A447B685B689B00B2FBF3F3314A9B
:104ED000A2FB03235B091C01FFF7A2F8024613465D
:104EE0009B0013449A001A447B685B689B00B2FBEA
:104EF000F3F5FFF795F8024613469B0013449A001A
:104F00001A447B685B689B00B2FBF3F3214AA2FB67
:104F100003235B09642202FB03F3EB1A1B01323308
:104F20001C4AA2FB03235B0903F0F0031C44FFF7B8
:104F300077F8024613469B0013449A001A447B6894
:104F40005B689B00B2FBF3F5FFF76AF80246134675
:104F50009B0013449A001A447B685B689B00B2FB79
:104F6000F3F30C4AA2FB03235B09642202FB03F365
:104F7000EB1A1B013233074AA2FB03235B0903F040
:104F80000F027B681B6822449A60FFE700BF10375E
:104F9000BD46B0BD1F85EB5180B58EB000AF00237C
:104FA000FB604E4B1B6B4D4A43F0040313634B4BAA
:104FB0001B6B03F00403FB60FB680023BB60474BE3
:104FC0001B6B464A43F008031363444B1B6B03F00F
:104FD0000803BB60BB684FF440437B620123BB62A4
:104FE0000023FB6207F1240319463D48FDF7CAF987
:104FF0004FF400437B620123BB620023FB6207F195
:10500000240319463748FDF7BDF94FF440733B615F
:1050100002237B610323FB6102233B6207F1100340
:1050200019463148FDF7AEF900237B602B4B1B6C12
:105030002A4A43F002031364284B1B6C03F002035B
:105040007B607B68294B2A4A1A60284B00225A60F1
:10505000264B00229A60254B41F26702DA60234B0F
:1050600000221A612148FFF75CF8224B60221A6087
:10507000204B4FF480725A611E4B00225A601D4B28
:1050800000229A601B4B04221A6108221949174812
:10509000FFF7E6F90C2217491448FFF7E1F9082158
:1050A0001248FFF773F80C211048FFF76FF8012240
:1050B0004FF400410B48FDF711FC0F4B00221A6022
:1050C0000E4B00221A600C4B00221A710B4B00226F
:1050D0001A7100BF3837BD4680BD00BF003802409E
:1050E000000C02400004024000080240100B0020A7
:1050F00000040040500B0020F80A0020080B00209C
:1051000080B582B000AF03463960FB71164A3B6838
:105110001360154AFB791371FB79002B06D100222D
:105120004FF480411148FDF7D9FB05E001224FF40F
:1051300080410E48FDF7D2FB0D4BDB683A6802FB5D
:1051400003F30C4AA2FB03235B090B4A53600822BA
:1051500009490748FFF784F908210548FFF716F8C1
:1051600000BF0837BD4680BDF80A0020000C024091
:10517000100B00201F85EB51500B002080B582B032
:1051800000AF03463960FB71164A3B681360154A4D
:10519000FB791371FB79002B06D100224FF40041FB
:1051A0001148FDF79BFB05E001224FF400410E483A
:1051B000FDF794FB0D4BDB683A6802FB03F30C4AE6
:1051C000A2FB03235B090B4A53600C2209490748E1
:1051D000FFF746F90C210548FEF7D8FF00BF083756
:1051E000BD4680BD080B0020000C0240100B0020C3
:1051F0001F85EB51500B002080B584B000AFBA6022
:105200007B600346FB730B46BB73FB7BB968184698
:10521000FFF776FFBB7B79681846FFF7AFFF00BF4B
:105220001037BD4680BD000080B500AF0E4B002298
:105230005A6008220C490D48FFF712F90C220A495E
:105240000A48FFF70DF908210848FEF79FFF0C21D7
:105250000648FEF79BFF064B00221A60054B002212
:105260001A6000BF80BD00BF500B0020100B002053
:10527000F80A0020080B002080B582B000AF7860EB
:10528000074A7B681360064B1A79054B1B68194661
:105290001046FFF735FF00BF0837BD4680BD00BF91
:1052A000F80A002080B582B000AF7860074A7B68BA
:1052B0001360064B1A79054B1B6819461046FFF719
:1052C0005DFF00BF0837BD4680BD00BF080B002052
:1052D00080B500AF00224FF400410248FDF7FEFA0E
:1052E00000BF80BD0004024080B500AF01224FF432
:1052F00000410248FDF7F2FA00BF80BD0004024001
:1053000080B500AF00224FF480710548FDF7E6FA42
:1053100000224FF400710248FDF7E0FA00BF80BDA3
:105320000008024080B586B000AF00237B606A4B66
:105330005B6C694A43F480735364674B5B6C03F4A2
:1053400080737B607B68654B654A1A60634B002203
:105350005A60624B00229A60604B01221A615F4BD7
:1053600001221A765D4B002283F820205B4B00223D
:105370005A625A4B012283F83020584B0022DA62DD
:10538000564B0022DA60554B0B22DA61534B002258
:105390005A615248FCF7EEF80023BB600123FB6022
:1053A00007233B6100237B6107F1080319464B4843
:1053B000FCF73EFA0623BB600223FB6007233B6138
:1053C00000237B6107F1080319464448FCF730FAD3
:1053D0000223BB600323FB6007233B6100237B6147
:1053E00007F1080319463D48FCF722FA0923BB6080
:1053F0000423FB6007233B6100237B6107F1080363
:1054000019463648FCF714FA0A23BB600523FB60F3
:1054100007233B6100237B6107F1080319462F48EE
:10542000FCF706FA0B23BB600623FB6007233B61F6
:1054300000237B6107F1080319462848FCF7F8F9B7
:105440000C23BB600723FB6007233B6100237B61C8
:1054500007F1080319462148FCF7EAF90D23BB6060
:105460000823FB6007233B6100237B6107F10803EE
:1054700019461A48FCF7DCF90823BB600923FB60D6
:1054800007233B6100237B6107F10803194613489A
:10549000FCF7CEF90423BB600A23FB6007233B61C2
:1054A00000237B6107F1080319460C48FCF7C0F99B
:1054B0000123BB600B23FB6007233B6100237B615F
:1054C00007F1080319460548FCF7B2F900F01EF889
:1054D00000BF1837BD4680BD00380240880B002051
:1054E0000020014080B485B000AF0346FB71FB791A
:1054F000054A32F81330FB81FB8918461437BD4644
:105500005DF8047B704700BF700B002080B582B04F
:1055100000AF00237B60254B1B6B244A43F48003C0
:105520001363224B1B6B03F480037B607B68204B6F
:10553000204A1A601E4B00225A601D4B00229A60BE
:105540001B4B0022DA601A4B4FF480621A61184B31
:105550004FF400625A61164B4FF400529A61144B9B
:105560004FF48072DA61124B4FF400321A62104B22
:1055700000225A620E4B01229A620D4B0022DA621F
:105580000B4B00221A630A48FCF710FD0A4B084A2D
:105590009A63074B084A9A630B2208490648FCF7AE
:1055A00037F800BF0837BD4680BD00BF0038024055
:1055B000D00B002010640240880B0020700B0020EC
:1055C00080B586B000AF01237B600323BB6000235E
:1055D000FB603B1D19460348FCF7D4FE00BF18379B
:1055E000BD4680BD0000024090B583B000AF4FF0D3
:1055F00000037B600020FFF775FF034607EE903A3B
:10560000F8EE677AC7ED017A214B5B68204A136098
:105610007868FAF759FF1AA3D3E90023FAF7ACFF29
:1056200003460C461846214617A3D3E90023FBF78F
:10563000CDF803460C4618462146FBF775FA03469B
:105640007B60134B93ED007AD7ED017A37EE277A22
:105650000F4BD3ED017A37EE277AF0EE086AC7EEEA
:10566000267AC7ED017A0A4A7B6853607B6807EEA9
:10567000903AB0EE670A0C37BD4690BDAFF300809C
:105680006666666666661A400000000000FEAF406F
:105690000800002080B582B000AFFFF7A5FF87EDBE
:1056A000010AD7ED017AB0EE0C7AF4EEC77AF1EE8A
:1056B00010FA00D408E0002001F018FA012001F0EF
:1056C00005FA02F06FF8F6E70837BD4680BD000026
:1056D00080B586B000AF00237B612B4B1B6B2A4A41
:1056E00043F001031363284B1B6B03F001037B6141
:1056F0007B6900233B61244B1B6B234A43F002036D
:105700001363214B1B6B03F002033B613B690023D6
:10571000FB601D4B1B6B1C4A43F0040313631A4BC5
:105720001B6B03F00403FB60FB680023BB60164B9C
:105730001B6B154A43F008031363134B1B6B03F0F9
:105740000803BB60BB6800237B600F4B1B6B0E4ADA
:1057500043F0100313630C4B1B6B03F010037B60CF
:105760007B68FFF7DFFDFFF72BFF01F093F901F0F6
:10577000CBFC00F0B1F801F0EBF801F089FB00BFC1
:105780001837BD4680BD00BF0038024080B500AF6D
:1057900000F02CF84FF4DC7000F052F800F074F8D0
:1057A00000BF80BD80B500AF00210248FEF7EEFCCF
:1057B00000BF80BD300C002080B500AF0021024842
:1057C000FEF722FD00BF80BD300C002080B582B006
:1057D00000AF7860786800F033F800F055F8FFF714
:1057E000E1FF00BF0837BD4680BD000080B586B030
:1057F00000AF4FF480437B600223BB600023FB605B
:1058000003233B6109237B613B1D19460A48FCF7D2
:10581000B9FD00233B60094B1B6C084A43F0400371
:105820001364064B1B6C03F040033B603B6800BFF6
:105830001837BD4680BD00BF00040240003802405A
:1058400080B582B000AF78600C4B0D4A1A600B4BEC
:1058500000225A60094B00229A600A4A7B68B2FB18
:10586000F3F3064AD360054B00221A610348FEF7A2
:1058700058FC00BF0837BD4680BD00BF300C00207B
:105880000018004000BD010580B500AF0F4B60223D
:105890001A600E4B4FF480725A610D4BDB68322256
:1058A00002FB03F30B4AA2FB03235B09074A536085
:1058B000064B00229A60054B04221A61002203491C
:1058C0000348FEF7CDFD00BF80BD00BF700C002077
:1058D000300C00201F85EB5180B58AB000AF8023CB
:1058E0007B610023BB6107F1140319460D48FCF7E7
:1058F00049FD08237B610123BB6107F114031946AD
:105900000848FCF73FFD02233B6003237B60002334
:10591000BB603B4619460348FCF734FD00BF2837FF
:10592000BD4680BD0000024090B583B000AF4FF08F
:1059300000037B600A20FFF7D5FD034607EE903A8F
:10594000F8EE677AC7ED017A7868FAF7BDFD10A323
:10595000D3E90023FAF710FE03460C461846214609
:105960000DA3D3E90023FAF731FF03460C4618468E
:105970002146FBF7D9F803467B607B6807EE903A37
:10598000B0EE670A0C37BD4690BD00BFAFF3008094
:105990006666666666661A400000000000FEAF405C
:1059A00080B400AFBFF34F8F054BDB6803F4E062B8
:1059B0000349044B1343CB60BFF34F8F00BFFDE798
:1059C00000ED00E00400FA0580B582B002AF0023CC
:1059D0000093002300220C214FF4613001F05AFCA7
:1059E000054B00221A71044B00225A72024B00220E
:1059F000DA7400BFBD4680BDC40C002080B582B003
:105A000000AF0346FB71624B1B78032B00F2B6809C
:105A100001A252F823F000BF295A0008455A000895
:105A2000F35A0008435B00085A4B00221A70FB79B6
:105A3000232B03D1564B01221A709FE0544B0022B6
:105A40001A709BE0FB79212B0DD1524B1A78524BE7
:105A50005A76514B00229A764F4B0022DA764C4B05
:105A600000221A708AE0FB79232B1ED1494B0022B9
:105A70001A70494B00225A76474B00229A76464BC1
:105A80000022DA7605220021434804F0F7F80A22C2
:105A90000021424804F0F2F80A220021404804F0B4
:105AA000EDF83B4B01221A7068E0FB792C2B0AD1F0
:105AB000384B1A78384B5A76364B00221A70344BD2
:105AC00002221A705AE0334B1B78042B0DD8314B4D
:105AD0001B785A1CD1B22F4A117019462E4AFB79F5
:105AE00053542B4B01221A7048E0294B00221A70A4
